:020000040800F2
:100000007802002081010008150C0008C50B0008CB
:1000100000000000000000000000000000000000E0
:100020000000000000000000000000001B0C0008A1
:100030000000000000000000190C00086D0C000812
:1000400093010008000000009301000893010008DC
:100050009301000893010008930100089301000830
:1000600000000000930100089301000893010008BC
:1000700093010008930100089301000800000000AC
:100080009301000800000000000000009301000838
:10009000000000009301000893010008930100088C
:1000A0000000000093010008000000009301000818
:1000B00093010008000000000000000000000000A4
:1000C00000F002F800F04CF812A030C808382418EC
:1000D0002D18AC4201D100F043F80FCCA246AB463C
:1000E0000CA730CF2D1B083F3F197C427F1E544484
:1000F0002D090426F441641EAC4201D300F030F80F
:100100000126334200D0FB1A3343984754465D46DC
:10011000DFE700001C0D00003C0D0000103A02D388
:1001200078C878C1FAD8520701D330C830C101D598
:1001300004680C6070470000704700000023002432
:1001400000250026103A01D378C1FBD8520700D30E
:1001500030C100D50B6070471FB51FBD10B510BD75
:1001600000F0E1F81146FFF7F7FF00F001FE00F0A4
:10017000F9F803B4FFF7F2FF03BC00F0FFF800004A
:100180000748804707480047FEE7FEE7FEE7FEE72F
:10019000FEE7FEE704480549054A044B70470000A6
:1001A000DD0C0008C1000008780000207802002063
:1001B00078020020002203098B422CD3030A8B42D1
:1001C00011D300239C464EE003460B433CD400224F
:1001D00043088B4231D303098B421CD3030A8B4261
:1001E00001D394463FE0C3098B4201D3CB01C01A2F
:1001F000524183098B4201D38B01C01A52414309FA
:100200008B4201D34B01C01A524103098B4201D3E7
:100210000B01C01A5241C3088B4201D3CB00C01A54
:10022000524183088B4201D38B00C01A52414308CC
:100230008B4201D34B00C01A5241411A00D20146F1
:100240005241104670475DE0CA0F00D0494203108A
:1002500000D3404253409C46002203098B422DD3D9
:10026000030A8B4212D38901FC2212BA030A8B4281
:100270000CD3890192118B4208D3890192118B42D0
:1002800004D389013AD0921100E08909C3098B4255
:1002900001D3CB01C01A524183098B4201D38B0198
:1002A000C01A524143098B4201D34B01C01A52413B
:1002B00003098B4201D30B01C01A5241C3088B4280
:1002C00001D3CB00C01A524183088B4201D38B006B
:1002D000C01A5241D9D243088B4201D34B00C01AF5
:1002E0005241411A00D201465241104663465B100A
:1002F00001D34042002B00D54942704763465B1052
:1003000000D3404201B50549002802DC491C0840E1
:1003100000E00846C046C04602BD00BFFFFFFF7FA9
:10032000704770477047754600F024F8AE460500E8
:1003300069465346C008C000854618B020B5FFF78F
:1003400029FF60BCB64600260027C0C5C0C5C0C591
:10035000C0C5C0C5C0C5C0C5C0C5403D49084900ED
:100360008D46704710B50446C046C0462046FFF78C
:1003700000FF10BD00487047100000200149182000
:10038000ABBEFEE726000200704772B6FFE7FEE74D
:10039000054800687047C0462D4802780249086841
:1003A000801808607047C0467000002080B582B099
:1003B00001A900200870032000F00EF8002804D0E6
:1003C000FFE701A90120087002E000F043F8FFE711
:1003D00001A8007802B080BD80B584B0039002A966
:1003E000002008701A480078002829D0FFE7BF488D
:1003F00000680190164801787D20C000FFF7DAFE02
:1004000001460198FFF7D6FE00F0D4FB002812D178
:10041000FFE70398032809D8FFE703990022D04398
:1004200000F036F80398B249086003E002A9012001
:100430000870FFE703E002A901200870FFE703E06E
:1004400002A901200870FFE702A8007804B080BD6F
:100450000400002082B0FFE70B48026801210A4334
:1004600002600068084001900198FFE7FFE7074835
:100470000268012109070A430260006808400090F1
:100480000098FFE702B07047401002403C10024065
:1004900080B584B0034603A8037002910192002145
:1004A0004056029900F022FC04B080BD80B584B0B3
:1004B000029001910298002804D1FFE703A90120CE
:1004C000087006E1019885490968072211408842B1
:1004D00021D9FFE78149086807229043019A104318
:1004E0000860FFF755FF0090FFE77C480068072190
:1004F0000840019988420DD0FFE7FFF749FF0099B6
:10050000401A7C49884204D3FFE703A903200870FE
:10051000DFE0EAE7FFE702980078800700281AD5B5
:10052000FFE702980078400700280AD5FFE79349C3
:1005300008680B221202104307221203904308603E
:10054000FFE78E4908680F2212029043029AD26890
:1005500010430860FFE702980078C007002869D0C0
:10056000FFE7884908681C229043029A926810436A
:1005700008600298406801280BD1FFE781480068B5
:100580008003002804D4FFE703A901200870A0E03D
:100590002CE00298406800280BD1FFE779480068FA
:1005A0004005002804D4FFE703A90120087090E06B
:1005B0001BE00298406803280BD1FFE74948006818
:1005C0008007002804D4FFE703A90120087080E019
:1005D0000AE0434800688007002804D4FFE703A925
:1005E0000120087075E0FFE7FFE7FFE7634908684F
:1005F00007229043029A526810430860FFF7C8FE32
:100600000090FFE75D48006838210840029949687A
:10061000C90088420DD0FFE7FFF7BAFE0099401AE3
:100620003449884204D3FFE703A90320087050E04F
:10063000E8E7FFE701982949096807221140884245
:1006400021D2FFE72549086807229043019A104309
:100650000860FFF79DFE0090FFE720480068072133
:100660000840019988420DD0FFE7FFF791FE0099FD
:10067000401A2049884204D3FFE703A903200870E9
:1006800027E0EAE7FFE702980078400700280AD54C
:10069000FFE73A490868072212039043029A126959
:1006A00010430860FFE700F027F8344909680F227B
:1006B000120211408A090C4989581F221140C84072
:1006C0000A4908600A480068FFF786FE03A9087017
:1006D000FFE703A8007804B080BDC04600200240B8
:1006E0005C10024060100240F00D00080000002085
:1006F000080000208913000080B582B01F48006800
:100700008006400F00280FD1FFE71E480068072130
:10071000C9020840C10A01208840019001991A4885
:10072000FFF748FD009025E0144800683821084094
:10073000082803D1FFE7124800901AE00F4800682C
:1007400038210840202804D1FFE70120C003009091
:100750000EE00A48006838210840182804D1FFE755
:100760007D200002009002E000200090FFE7FFE7FC
:10077000FFE7FFE7009802B080BDC04608100240C6
:1007800000127A0000100240006CDC0280B586B0D6
:1007900004900498002804D1FFE705A901200870FF
:1007A000F0E104980078C007002876D0FFE7F7480A
:1007B0000068382108400290029808280AD1FFE713
:1007C00004984068002804D1FFE705A901200870BB
:1007D000D8E161E0FFE704984068012109048842FC
:1007E00007D1FFE7EA4908680122120410430860B4
:1007F0001DE0049840680521090488420BD1FFE7F9
:10080000E349086801229304184308600868120449
:10081000104308600AE0DE49086801221304984387
:1008200008600868920490430860FFE7FFE7FFE76D
:1008300004984068002817D0FFE7FFF7A9FD039050
:10084000FFE7D3480068800300280CD4FFE7FFF7D8
:100850009FFD0399401A652804D3FFE705A90320EB
:1008600008708FE1EDE716E0FFF792FD0390FFE7D8
:10087000C7480068800300280CD5FFE7FFF788FD14
:100880000399401A652804D3FFE705A903200870DF
:1008900078E1EDE7FFE7FFE7FFE7049800788007DE
:1008A000002800D490E0B948006838210840029040
:1008B0000298002835D1FFE70498C068002804D1C9
:1008C000FFE705A9012008705CE1B24908687F22B2
:1008D00012029043049A526912021043086002986F
:1008E000002811D1FFE7AA4802680721C9028A43FC
:1008F000049B1B691A43026000680840C10AA648AD
:10090000C840A6490860FFE7A5480068FFF764FDF6
:10091000002804D0FFE705A90120087032E1FFE7B5
:1009200051E00498C06800282FD0FFE79849086874
:100930000722D2029043049A1269104308600868A3
:100940000122120210430860FFF722FD0390FFE727
:100950008F480068400500280CD4FFE7FFF718FD1A
:100960000399401A032804D3FFE705A90320087060
:1009700008E1EDE7874908687F2212029043049A54
:1009800052691202104308601CE081490868012284
:10099000120290430860FFF7FBFC0390FFE77C48DE
:1009A0000068400500280CD5FFE7FFF7F1FC03992C
:1009B000401A032804D3FFE705A903200870E1E0EB
:1009C000EDE7FFE7FFE7FFE704980078000700285E
:1009D00050D5FFE76D4800683821084018280AD133
:1009E000FFE704988069002804D1FFE705A90120EA
:1009F0000870C7E03DE00498806900281CD0FFE73C
:100A000068490868012210430860FFF7C1FC0390A1
:100A1000FFE764480068800700280CD4FFE7FFF771
:100A2000B7FC0399401A032804D3FFE705A9032064
:100A30000870A7E0EDE71BE05A49086801229043DF
:100A40000860FFF7A5FC0390FFE7564800688007A1
:100A500000280CD5FFE7FFF79BFC0399401A0328F9
:100A600004D3FFE705A9032008708BE0EDE7FFE75B
:100A7000FFE7FFE704980078400700287ED5FFE7EE
:100A800001A900200870414800683821084020284A
:100A90000AD1FFE704988068002804D1FFE705A980
:100AA000012008706EE068E0FFE704988068012884
:100AB00006D1FFE73C49086801221043086019E0AD
:100AC0000498806805280AD1FFE73749086804229E
:100AD00010430860086801221043086009E03249A9
:100AE0000868012290430860086804229043086067
:100AF000FFE7FFE7FFE704988068002818D0FFE7CA
:100B0000FFF746FC0390FFE72748006880070028AE
:100B10000DD4FFE7FFF73CFC0399401A23498842B4
:100B200004D3FFE705A9032008702BE0ECE717E0EA
:100B3000FFF72EFC0390FFE71B48006880070028A2
:100B40000DD5FFE7FFF724FC0399401A17498842A7
:100B500004D3FFE705A90320087013E0ECE7FFE7E3
:100B600001A80078012807D1FFE711490868012290
:100B7000120790430860FFE7FFE7FFE705A90020A1
:100B80000870FFE705A8007806B080BD0810024095
:100B90000010024004100240006CDC020000002043
:100BA00008000020601002405C1002408913000021
:100BB0003C10024080B582B00190019800F02EF800
:100BC00002B080BDFFE7FEE783B0FFE71048026890
:100BD00004210A4302600068084002900298FFE77F
:100BE000FFE70B48026820210A43026000680840C2
:100BF00001900198FFE7FFE70548026801210A43D9
:100C000002600068084000900098FFE703B070475A
:100C100034100240FFE7FEE77047704780B584B0AC
:100C200002900298401E000E002803D0FFE701202A
:100C3000039011E00298401E0949086000200190CD
:100C4000C043032100F052F8019806490860064AA3
:100C5000072111600390FFE7039804B080BDC046F0
:100C600014E000E018E000E010E000E080B5FFF7DD
:100C700093FB80BD80B58EB0002001900D900C904C
:100C80000B900A90099008900790069005900490A8
:100C90000390029002210791012109020A910B9011
:100CA00040200C9007A8FFF771FD002803D0FFE754
:100CB000FFF76BFBFFE707200290002003900490F2
:100CC0000590069002A80121FFF7F0FB002803D051
:100CD000FFE7FFF75AFBFFE70EB080BD0120C0061B
:100CE000014908607047C04608ED00E070B582B069
:100CF000024601A80270009100214056002816D437
:100D0000FFE7002401A908570322D3431840174ADC
:100D1000805809578C07E50EFF24AC40A043009C87
:100D2000A401E4B2AC402043194088501AE001A964
:100D300008780F24204008380322D34318400A4A79
:100D40008058002549578D07EE0EFF25B540A84372
:100D5000009DAD01EDB2B54028432140083919404E
:100D60008850FFE702B070BD1CED00E000E400E039
:100D700080B584B0002001900390FFF717FBFFF7C8
:100D800079FFFFF721FF019802900298401C029022
:100D90000298401C02900298401C02900298401C4D
:100DA00002900298401C02900298401C0290029807
:100DB000401C02900298401C02900298401C029035
:100DC0000298401C02900298401C02900298401C1D
:100DD00002900298401C02900298401C02900298D7
:100DE000401C02900298401C0290FFE7FEE70000C2
:100DF00000000000000000000000000000000000F3
:100E000000000000000000000000000000000000E2
:100E100001000000020000000300000004000000C8
:100E200006000000070000000800000009000000A4
:100E3000500E000800000020100000001C010008F7
:100E4000600E000810000020680200003C0100084D
:100E5000006CDC0201000000040000000000000043
:04000005080000C12E
:00000001FF
