:020000040800F2
:1000000078060020650200086D0B0008190B000837
:10001000690B00080D040008350C00080000000002
:10002000000000000000000000000000750B000848
:100030001104000800000000710B0008790B000893
:100040007F0200087F0200087F0200087F0200088C
:100050007F0200087F0200087F0200087F0200087C
:100060007F0200087F0200087F0200087F0200086C
:100070007F0200087F0200087F0200087F0200085C
:100080007F0200087F0200087F02000800000000D5
:100090000000000000000000000000007F020008D7
:1000A0007F0200087F0200087F0200087F0200082C
:1000B0007F0200087F0200087F0200087F0200081C
:1000C0007F0200087F0200087F0200087F0200080C
:1000D0007F0200087F0200087F0200080000000085
:1000E0007F0200087F0200087F0200080000000075
:1000F0000000000000000000000000007F02000877
:10010000000000007F0200087F0200087F02000854
:1001100000000000000000000000000000000000DF
:100120007F0200087F0200087F0200087F020008AB
:100130007F02000800000000000000000000000036
:100140000000000000000000000000007F02000826
:100150007F0200087F0200087F0200087F0200087B
:100160007F0200087F02000800000000000000007D
:10017000000000000000000000000000000000007F
:10018000000000007F0200080000000000000000E6
:100190007F0200087F02000800F002F800F052F829
:1001A00014A696E8000CB244B344DA4501D100F03D
:1001B00049F8BAE80F000FA696E83000A5EB040551
:1001C00004EB0607AAEB0704A7F101074FEA151590
:1001D0004FEA3414A4F10104AC4201D300F032F828
:1001E00013F0010F18BFFB1A43F0010300F001F8F0
:1001F000DBE718477C0A00009C0A0000103A24BF85
:1002000078C878C1FAD8520724BF30C830C144BF7B
:1002100004680C6070470000704700000023002451
:1002200000250026103A28BF78C1FBD8520728BF06
:1002300030C148BF0B6070471FB500F004FD1FBD03
:1002400010B510BD00F0A7F81146FFF7F5FF00F05C
:10025000F3FC00F0C5F803B4FFF7F2FF03BC00F0B5
:10026000CDF800000948804709480047FEE7FEE74F
:10027000FEE7FEE7FEE7FEE7FEE7FEE7FEE7FEE756
:1002800004480549054A044B70470000210C00084A
:1002900099010008780000207806002078060020E8
:1002A00053EA020C00F069802DE9F04B4FF0000694
:1002B000002B1FBFB3FA83F503FA05F424FA05F601
:1002C0005E4012BF1643B2FA82F502FA05F4C5F198
:1002D00020051EBF22FA05FC44EA0C04203556EA2C
:1002E000044C4FEA144418BF641C4FF000084FF050
:1002F0000009904271EB030C39D3002919BFB1FA00
:1003000081F701FA07F6B0FA80F700FA07F6C7F1AD
:1003100020071EBF20FA07FC46EA0C062037B6FB72
:10032000F4FCA7EB0507103F07F01F0BCBF12006ED
:100330002CFA06F60CFA0BFB44BFB3460026202F1E
:10034000A4BF5E464FF0000B5BEA060C08BF4FF0FF
:10035000010B19EB0B0948EB0608ABFB027C06FB13
:1003600002CC0BFB03CCC01B71EB0C01C1E70B46AD
:10037000024641464846BDE8F08B13B5084318BF16
:100380004FF0FF300146AFF30080BDE81C407047DE
:10039000704770477047754600F02CF8AE46050070
:1003A0006946534620F00700854618B020B5FFF790
:1003B00067FFBDE820404FF000064FF000074FF008
:1003C00000084FF0000BAC46ACE8C009ACE8C0092F
:1003D000ACE8C009ACE8C00921F007018D467047C0
:1003E00010B50446AFF300802046BDE81040FFF78B
:1003F00032BF00000048704710000020014918205B
:10040000ABBEFEE72600020070470000FEE70000DA
:100410007047000040F27000C2F2000000687047B0
:1004200040F2000040F27001C2F20000C2F200018E
:1004300000780A68104408607047000080B543F6F1
:100440000040C4F20200016841F4007101600168DB
:1004500041F480610160016841F480710160032012
:1004600000F074F80F2000F005F800F027F80020E5
:1004700080BD000070B540F20006C2F2000640F2F6
:1004800008013278C2F200014FF47A730968B3FBB5
:10049000F2F20446B1FBF2F1084600F027FB0F2C04
:1004A0004FF0010508D838B94FF0FF30214600223F
:1004B000002500F01FF87460284670BD82B000204F
:1004C00043F640010190C4F202014A6842F48042BE
:1004D0004A604A6802F480420192019A00900868DA
:1004E00040F080500860086800F08050009000984C
:1004F00002B0704710B54EF60C5CCEF2000CDCF882
:100500000030C3F3022E8EF00704042C28BF04240D
:10051000BEF103034FF0FF3E0EFA04F438BF002390
:10052000A14399400EFA03F39A43114300F00F02DE
:1005300000F160430901043A03F564436244002872
:1005400048BF02F10C03197010BD00004EF60C51AB
:10055000CEF200010A684FF6FF031A4060F30A2248
:1005600042F0806040F0FD7008607047002804BFD2
:10057000012070472DE9F04143F60808C4F2020853
:100580000446D8F8F8030D4600F00700884207D269
:1005900088F8F853D8F8F80300F00700A84277D19C
:1005A0002068810717D5410705D5D8F8001041F418
:1005B000E051C8F80010010705D5D8F8001041F443
:1005C0006041C8F80010D8F80010A26821F0F001CE
:1005D0001143C8F80010C00740D1D8F8F80300F064
:1005E0000700A84207D988F8F853D8F8F80300F0B4
:1005F0000700A8424CD12068410707D5D8F8001061
:10060000E26821F4E0511143C8F80010000708D552
:10061000D8F80000216920F4604040EAC100C8F821
:10062000000000F055F8D8F8001040F66042C1F321
:100630000311C0F60002515C40F2080220FA01F1F9
:1006400040F20400C2F200000068C2F20002116031
:10065000FFF710FF0020BDE8F08100BF6068811E39
:10066000022907D258F8081C89015CBF0120BDE8A7
:10067000F08111E0012807D158F8081C89035CBFFC
:100680000120BDE8F08107E058F8081C890703D471
:100690000120BDE8F08100BFD8F8001021F003016F
:1006A0000843C8F80000FFF7B5FE064641F2883758
:1006B000D8F80000616800F00C00B0EB810F8CD01E
:1006C000FFF7A8FE801BB842F2D90320BDE8F081F5
:1006D00010B543F60404C4F20204606800F00C0094
:1006E00008280BD0042819BF42F20040C0F2F400E1
:1006F00047F64000C0F27D1010BD00BF20682168A1
:100700002368490247F64001C0F27D1100F03F0224
:10071000C3F388105CBF42F20041C0F2F401A1FBB8
:1007200000010023FFF7BCFD21680222C1F3014153
:1007300002EB4101B0FBF1F010BD0000002804BF46
:10074000012070472DE9F04182B00446007843F65D
:100750000006C007C4F202060CD0B06800F00C001E
:10076000042840F081803068800303D56068002849
:1007700000F06A81207880071BD5B06810F00C0F5C
:1007800009D0B06800F00C00082840F0878070683D
:10079000400200F183803068800703D5E0680128BB
:1007A00040F052813068216920F0F80040EAC10031
:1007B00030602078000713D4207840072AD4A56938
:1007C000002D00F03C81B06800F00C00082840F0DB
:1007D000A180012D40F01081012002B0BDE8F08120
:1007E0006069002840F20000C4F2472000F07E80DB
:1007F0000121C0F8801EFFF70DFE0546706F8007CF
:10080000DAD4FFF707FE401B0228F7D9032002B015
:10081000BDE8F081306C5FEAC0080AD40020019086
:10082000306C40F080503064306C00F080500190AB
:10083000019847F20007C4F200073868C00547D4A2
:10084000386840F480703860FFF7E4FD054600BF6B
:100850003868C0053CD4FFF7DDFD401B0228F7D9FE
:10086000032002B0BDE8F081B06800F00C00082859
:1008700003D1706840023FF576AF6068B0F5803F05
:1008800007D0B0F5A02F40F09B80306840F4802066
:100890003060306840F4803030609BE0E0680028D1
:1008A0005CD00020C4F2472001210160FFF7B2FDB7
:1008B000054600BF306880073FF574AFFFF7AAFD1B
:1008C000401B0228F6D9032002B0BDE8F08100BF2A
:1008D000A068012805D0052854D1306F40F00400ED
:1008E0003067306F40F00100306755E00021C0F8FC
:1008F000801EFFF78FFD0546706F80077FF55CAFA8
:10090000FFF788FD401B0228F6D9032002B0BDE89E
:10091000F08100BF0027C4F2472700203866FFF7A8
:1009200079FD022D05460DD13068800140F190809F
:10093000FFF770FD401B02284FF00300F4D902B00E
:10094000BDE8F0813068800179D5FFF763FD401B79
:1009500002284FF00300F5D9F1E700BF0020C4F2F0
:10096000472000210160FFF755FD054630688007EC
:100970007FF51FAFFFF74EFD401B02284FF003002D
:10098000F4D9DCE7316F002821F001013167316FC4
:1009900021F0040131677DD0FFF73CFD054641F2AF
:1009A000883700BF306F800700F18680FFF732FD87
:1009B000401BB842F6D9032002B0BDE8F08100BF69
:1009C0003168002821F480313160316821F48021C0
:1009D00031607BD0FFF71EFD054600BF3068800305
:1009E0003FF5C8AEFFF716FD401B6428F6D903207B
:1009F00002B0BDE8F08100BF7068E16900F48002D8
:100A00008A4221D1216A00F03F028A421CD147F676
:100A1000C071626A0140B1EB821F15D1A16A4FF625
:100A2000FF73C903994300F44032A1F580318A4233
:100A30000AD1E16A00F07060B0EB016F04D10020D0
:100A400002B0BDE8F08100BF012002B0BDE8F08136
:100A500004F11C052FCD084340EA8210D9034FF65C
:100A6000FF729143A1F5803140EA05600843706050
:100A700001203866FFF7CEFC044600BF30688001D5
:100A8000DDD4FFF7C7FC001B02284FF00300F5D9A7
:100A900055E700BFFFF7BEFC054641F2883700BFAF
:100AA000306F800708D5FFF7B5FC401BB8424FF008
:100AB0000300F5D943E700BFB8F1000F3FF57FAE63
:100AC000306C20F08050306479E600BFFFF7A2FC64
:100AD000054600BF306880037FF54CAEFFF79AFCF7
:100AE000401B64284FF00300F4D928E7411E002082
:100AF000B0EB116F1CBF012070474EF21002CEF216
:100B0000000251604EF62351CEF20001F0230B702B
:100B10000721906011607047FEE7000083B000205D
:100B200043F630010290C4F202010A6842F0040266
:100B30000A600A6802F004020292029A01900A68AE
:100B400042F080020A600A6802F080020192019A73
:100B50000090086840F001000860086800F001009B
:100B60000090009803B07047FEE70000FEE7000029
:100B70007047000070470000FFF752BCB0B592B05C
:100B8000002443F640000B94CDE90944CDE9074425
:100B90000594CDE90344CDE901440094C4F2020078
:100BA0000168022541F080510160006800F080502A
:100BB0000090009847F200000094C4F20000016821
:100BC00041F440410160006800F44040009000980A
:100BD0000120099010200A9008200E906420CDE991
:100BE0000F050420119006A80695CDE90C54FFF7D7
:100BF000A5FD18B172B600BFFEE700BF0F20CDE91A
:100C000001054FF48050CDE9040401A803210394A9
:100C1000FFF7ACFC10B172B6FEE700BF12B0B0BD7A
:100C20004EF68850CEF20000016841F47001016078
:100C300070470000FEE70000FFF700FCFFF79EFF93
:100C4000FFF76CFFFEE7F1EE100A4FF6FF71C0F2FE
:100C5000C03120EA010040F04070E1EE100A704718
:100C6000000000000000000001020304060708095C
:100C7000900C00080000002010000000FC0100089B
:100C8000A00C000810000020680600001C020008EC
:100C900001000000100000000024F400000000002B
:040000050800019955
:00000001FF
