:020000040800F2
:100000007002002065010008B50800088908000892
:1000100000000000000000000000000000000000E0
:10002000000000000000000000000000B908000807
:100030000000000000000000B7080008BB0800082E
:100040007701000800000000770100087701000830
:1000500077010008770100087701000877010008A0
:100060000000000077010008770100087701000810
:100070007701000877010008770100080000000000
:100080007701000800000000000000007701000870
:1000900000000000770100087701000877010008E0
:1000A0000000000077010008000000007701000850
:1000B00077010008000000000000000000000000C0
:1000C00000F002F800F03EF80CA030C80838241800
:1000D0002D18A246671EAB4654465D46AC4201D180
:1000E00000F030F87E460F3E0FCCB6460126334274
:1000F00000D0FB1AA246AB4633431847C4080000A1
:10010000E4080000103A02D378C878C1FAD8520740
:1001100001D330C830C101D504680C6070470000BD
:100120000023002400250026103A01D378C1FBD813
:10013000520700D330C100D50B6070471FB51FBDFB
:1001400010B510BD00F0F8F81146FFF7F7FF00F00A
:100150000BFC00F010F903B4FFF7F2FF03BC00F052
:1001600017F900000748804707480047FEE7FEE709
:10017000FEE7FEE7FEE7FEE704480549054A044BB3
:100180007047000015090008C10000087000002039
:10019000700200207002002001E004C0091F042941
:1001A000FBD28B0701D50280801CC90700D00270EA
:1001B000704700290BD0C30702D00270401C491EB3
:1001C000022904D3830702D50280801C891EE3E73D
:1001D0000022EEE70022DFE7002203098B422CD346
:1001E000030A8B4211D300239C464EE003460B4387
:1001F0003CD4002243088B4231D303098B421CD3E9
:10020000030A8B4201D394463FE0C3098B4201D3DA
:10021000CB01C01A524183098B4201D38B01C01A12
:10022000524143098B4201D34B01C01A5241030989
:100230008B4201D30B01C01A5241C3088B4201D338
:10024000CB00C01A524183088B4201D38B00C01AE5
:10025000524143088B4201D34B00C01A5241411A0C
:1002600000D201465241104670475DE0CA0F00D0EF
:100270004942031000D34042534000229C460309E8
:100280008B422DD3030A8B4212D3FC22890112BA6E
:10029000030A8B420CD3890192118B4208D3890146
:1002A00092118B4204D389013AD0921100E089095E
:1002B000C3098B4201D3CB01C01A524183098B423F
:1002C00001D38B01C01A524143098B4201D34B0128
:1002D000C01A524103098B4201D30B01C01A52418B
:1002E000C3088B4201D3CB00C01A524183088B4212
:1002F00001D38B00C01A5241D9D243088B4201D39B
:100300004B00C01A5241411A00D201466346524185
:100310005B10104601D34042002B00D54942704784
:1003200063465B1000D3404201B50020C046C04682
:1003300002BD704770477047754600F025F8AE461D
:10034000050069465346C008C000854618B020B570
:10035000FFF712FF60BC00274908B6460026C0C55B
:10036000C0C5C0C5C0C5C0C5C0C5C0C5C0C5403D6D
:1003700049008D46704710B50446C046C046204629
:10038000FFF7E9FE10BD0000004870471000002094
:1003900001491820ABBEFEE72600020070470000AE
:1003A0000148806870470000000000200248816812
:1003B00002788918816070470000002010B5002481
:1003C000032000F009F8002801D0012401E000F02A
:1003D00027F8204610BD000070B50F4E002431787C
:1003E0000546002915D07D20C000FFF7F5FE014627
:1003F0000A480068FFF7F0FE00F02EFA002808D146
:10040000042D06D200222946401E00F01FF8756018
:1004100000E00124204670BD000000200C000020F8
:1004200008B50948016801221143016000681040C5
:10043000009005484038C26B01040A43C263C06B98
:100440000840009008BD00004010024010B500F0C8
:1004500069FA10BDF8B50D4604004BD04F4800684E
:100460004007400FA84214D24C4F3868C008C00063
:1004700028433860FFF794FF064605E0FFF790FF3A
:10048000811B4748814264D838684007400FA84222
:10049000F4D12068434E810710D5400707D5B068D6
:1004A0000721090388430B2109020843B060B068A3
:1004B0000F2109028843E1680843B0602078C00733
:1004C00032D030681C218843A168084330606068DE
:1004D000012808D0002809D03249403103280BD028
:1004E000C969890704E03168890301E03168490579
:1004F000002903DB0120F8BD096AF2E7B168C908E9
:10050000C9000143B160FFF74BFF074605E0FFF765
:1005100047FFC11B224881421BD8B06838210840E0
:100520006168C9008842F2D11C4801684907490F37
:10053000A94216D90168C908C90029430160FFF71B
:100540002FFF074607E0FFF72BFFC11B144881422E
:1005500001D90320F8BD114800684007400FA842A8
:10056000F1D12078400706D5B068072109038843F8
:1005700021690843B06000F01DF8B1683C22890988
:100580001140094A515CC906C90EC84007490860B4
:1005900007480068FFF720FFF8BD00000020024078
:1005A0008813000000100240800900080C000020A1
:1005B0000400002010B5134881688906490F10D047
:1005C00081688906490F012914D081688906490F7D
:1005D000042911D080688006400F03280FD0002026
:1005E00010BD006801218004400F81400648FFF7DC
:1005F000F3FD10BD054810BD0120C00310BD7D20D6
:10060000000210BD00100240006CDC0200127A00F3
:10061000F8B5040077D020783827C007864D002829
:1006200039D0A86838400828606806D0012109043C
:10063000884205D12868084310E00028EAD02AE063
:10064000052301221B0492049842286802D110431A
:100650002860EFE788432860286890432860606836
:1006600000280CD0FFF79CFE064604E0FFF798FE3A
:10067000801B64287AD828688003F7D50BE0FFF741
:100680008FFE064604E0FFF78BFE801B6428F1D83E
:1006900028688003F7D42078800753D5A868684974
:1006A0003842664F1ED1E06800282CD06868626925
:1006B000B8431202104368602868884321690843E0
:1006C0002860286801218004400F81405D48FFF7C1
:1006D00083FD5D4908605D480068FFF77DFE0028E6
:1006E0007FD12FE0FF20E2680130002A1BD02A686A
:1006F0008A4321690A432A60296801432960FFF778
:100700004FFE064605E06CE0FFF74AFE801B02281C
:100710002CD828684005F7D568686169B843090294
:10072000084368600EE0296881432960FFF738FEBE
:10073000064604E0FFF734FE801B02286ED82868C6
:100740004005F7D42078424E00072BD5A8688006D4
:10075000400F0328A0690AD00028306A13D0012175
:1007600008433062FFF71CFE074608E056E0002809
:1007700037D017E0FFF714FEC01B02284ED8306AAE
:100780008007F7D50EE0400840003062FFF708FE12
:10079000074604E0FFF704FEC01B02283ED8306A7B
:1007A0008007F7D42078400744D5A8680027800642
:1007B000400F0428A06812D0012814D00421052875
:1007C000F06914D040084000F061F0698843F0619E
:1007D000A068002818D0FFF7E3FD044610E00028C9
:1007E00028D10120F8BDF06901210843EFE7084353
:1007F000F061F8E7FFF7D4FD011B164881420DD8E0
:10080000F0698007F6D50EE0FFF7CAFD044607E061
:10081000FFF7C6FD011B0F48814201D90320F8BD37
:10082000F0698007F4D4002F04D0E86B0121090798
:100830008843E8630020F8BD00100240007F0000FC
:1008400000380000006CDC020C00002004000020D6
:100850004010024088130000094910B5401E88422C
:1008600001D9012010BD074C60610321081F00F071
:1008700059F80020A06107202061002010BD000071
:10088000FFFFFF0000E000E0FEE7000008B50848B9
:10089000426B20210A434263426B0A400092416B43
:1008A000012211434163406B1040009008BD0000DD
:1008B00000100240FEE77047704710B5FFF776FD65
:1008C00010BD10B58CB01C216846FFF783FC1421C5
:1008D00007A8FFF77FFC02200090C0010390402092
:1008E0000024059004946846FFF792FE002801D08A
:1008F00072B6FEE707200790089409940A94012134
:100900000B9407A8FFF7A6FD002801D072B6FEE7FA
:100910000CB010BD01200249C0068860704700007D
:1009200000ED00E08307FF22DB0E9A408907090EE5
:100930009940002808DB830809489B0018180368C1
:1009400093430B43036070470007000F0838830888
:1009500004489B001818C36993430B43C361704755
:1009600000E400E000ED00E0FFF728FDFFF7A9FF3D
:10097000FFF78CFF0020401C1528FCDBFEE7000081
:100980000000000000000000000000000000000067
:100990000000000000000000000000000000000057
:1009A000010000000200000003000000040000003D
:1009B0000600000007000000080000000900000019
:1009C000E0090008000000201000000004010008F9
:1009D000F00900081000002060020000200100085B
:1009E000010000000400000000000000006CDC02B8
:04000005080000C12E
:00000001FF
